:100000000C942A000C9443010C9448000C943C007E
:100010000C943C000C943C000C943C000C943C0070
:100020000C943C000C943E000C943C000C94A900F1
:100030000C941F010C943C000C94FB000C943C00AD
:100040000C943C000C943C000C943C000C943C0040
:100050000C943C0011241FBECFE5D4E0DEBFCDBF21
:1000600020E0A0E6B0E001C01D92A337B207E1F79F
:100070000E94A9010C94B7010C9400001F920F92EA
:100080000FB60F9211240F900FBE0F901F9018956E
:100090001F920F920FB60F92112418BA109272008D
:1000A0000F900FBE0F901F901895559810927100E9
:1000B000089580917200893080F4E0E6F0E089E6EE
:1000C00090E021912CB9E817F907D9F7559A80915A
:1000D00072008F5F8093720008955598109272009D
:1000E000089580B5806880BD81E0809371000E9492
:1000F00059000895EAE6F0E0908190936900ABE63C
:10010000B0E02C912083ECE6F0E090819C93ADE68A
:10011000B0E03C913083EEE6F0E030813C938083A8
:10012000392F920FA9F490916900923089F490913F
:100130006D00933069F4833059F4363019F486E059
:100140000E94710080916B00873011F40E9455006D
:1001500008951F920F920FB60F9211242F933F9381
:100160004F935F936F937F938F939F93AF93BF93BF
:10017000EF93FF938CB10E947A00FF91EF91BF91B2
:10018000AF919F918F917F916F915F914F913F912F
:100190002F910F900FBE0F901F90189584B18093F0
:1001A0006F0085B1809370008FEF84BB80917100E8
:1001B0008130F1F48EEF85BB30916F00809170003B
:1001C00020916B0099E0909361002093620030933E
:1001D0006300809364001092660090E0830F911D8D
:1001E000820F911D0996809365000E945900089521
:1001F00081E085BB08951F920F920FB60F921124D4
:100200002F933F934F935F936F937F938F939F931E
:10021000AF93BF93EF93FF930E94CE00FF91EF91B6
:10022000BF91AF919F918F917F916F915F914F910E
:100230003F912F910F900FBE0F901F9018951F9216
:100240000F920FB60F9211242F933F934F935F930A
:100250006F937F938F939F93AF93BF93EF93FF938E
:100260000E945900FF91EF91BF91AF919F918F91A3
:100270007F916F915F914F913F912F910F900FBEA2
:100280000F901F9018951F920F920FB60F92112486
:100290002F933F934F935F936F937F938F939F938E
:1002A000AF93BF93EF93FF938FEF88BB0E945900EA
:1002B000FF91EF91BF91AF919F918F917F916F913E
:1002C0005F914F913F912F910F900FBE0F901F9014
:1002D000189580B5806880BD8FE08CB980B58F7728
:1002E00080BD08951BBA8FEF8ABB9CE392BB81BB94
:1002F00018BA87BB089587B1806C87B986B18E6DB7
:1003000086B980B7806880BF089583B7836083BF54
:1003100089B7816089BF089510BC8CE089B98AB122
:100320008B6F8AB980B58F7780BD089585B782605D
:1003300085BF8BB780648BBF8AB780648ABF85B75F
:10034000886085BF8BB780688BBF8AB780688ABF9B
:1003500008950E9472010E948C010E9485010E94F2
:1003600096010E947B0178940E946901FFCFF89466
:02037000FFCFBD
:00000001FF
