S01500006C6963656E746120696F7074612E73726563F2
S11300000C942A000C9484000C94A5000C943C00DD
S11300100C943C000C943C000C943C000C943C006C
S11300200C943C000C9472000C943C000C94F3006F
S11300300C943C000C94C7000C943E000C943C00BF
S11300400C943C000C943C000C943C000C943C003C
S11300500C943C0011241FBECFE5D4E0DEBFCDBF1D
S113006020E0A0E6B0E001C01D92AD37B207E1F791
S11300700E9413030C94C2030C9400001F920F926D
S113008000905F000F9211242F933F934F935F933F
S11300906F937F938F939F93AF93BF93EF93FF934C
S11300A0CF93DF93CDB7DEB781E0809362000E94E7
S11300B02B018CE290E02CEFFC012083DF91CF91A7
S11300C0FF91EF91BF91AF919F918F917F916F912C
S11300D05F914F913F912F910F9000925F000F908D
S11300E01F9018951F920F9200905F000F92112499
S11300F0CF93DF93CDB7DEB7DF91CF910F9000920E
S11301005F000F901F9018951F920F9200905F0050
S11301100F9211242F938F939F93EF93FF93CF9379
S1130120DF93CDB7DEB788E390E02FEFFC012083A7
S1130130DF91CF91FF91EF919F918F912F910F902C
S113014000925F000F901F9018951F920F920090DD
S11301505F000F9211248F939F93EF93FF93CF939C
S1130160DF93CDB7DEB788E390E0FC0110821092F4
S1130170610010926000DF91CF91FF91EF919F9108
S11301808F910F9000925F000F901F9018951F920F
S11301900F9200905F000F9211242F933F934F937F
S11301A05F936F937F938F939F93AF93BF93EF93DB
S11301B0FF93CF93DF93CDB7DEB70E94B702DF91F1
S11301C0CF91FF91EF91BF91AF919F918F917F91CB
S11301D06F915F914F913F912F910F9000925F002B
S11301E00F901F9018951F920F9200905F000F922E
S11301F011242F933F934F935F936F937F938F9328
S11302009F93AF93BF93EF93FF93CF93DF93CDB7B8
S1130210DEB78BE390E02CE230E0F9012081FC01B1
S113022020838CE290E0FC0180810E949E01DF919A
S1130230CF91FF91EF91BF91AF919F918F917F915A
S11302406F915F914F913F912F910F9000925F00BA
S11302500F901F901895CF93DF9300D0CDB7DEB7E2
S113026084E390E02FEFFC012083809162008130D1
S113027009F041C085E390E02EEFFC01208381E08A
S11302808093760084E290E0FC0180818093640096
S113029085E290E0FC01808180936300809164009A
S11302A0282F30E080916300882F90E0280F391FB9
S11302B080916800882F90E0820F931F0A969A839A
S11302C089838091680080936F008091640080939B
S11302D0700080916300809371008981882F90E081
S11302E0892F990F990B80937300898180937200F1
S11302F00E94B70205C085E390E021E0FC01208361
S11303000F900F90DF91CF910895CF93DF931F92B9
S1130310CDB7DEB789838AE080936E0080E3809353
S11303206C0080E380936D0081E38093740081E32B
S1130330809375000F90DF91CF910895CF93DF9351
S113034000D000D0CDB7DEB78C8380917B008F5F67
S113035080937B0085E390E020916800FC0120837A
S113036080917900882399F48C81813381F48C8184
S11303708093770081E08093790080917B00809363
S11303807C0088E390E028EFFC0120839AC08091F0
S11303907A008823D9F48C818133C1F480917C0064
S11303A0282F30E080917B00882F90E00197281758
S11303B0390761F48C818093780081E080937A001E
S11303C088E390E02CEFFC0120837BC080917900CE
S11303D0813091F480917A00882371F4109279002D
S11303E010927A0010927B0010927C0088E390E0D7
S11303F02AEAFC01208365C080917A00813009F0EB
S11304005AC080917900813009F055C088E390E0AA
S11304102EEFFC0120831A82198212C089819A81ED
S1130420019629813A812B593F4FF90120818B593B
S11304309F4FFC01208389819A8101969A83898345
S113044089819A81853091054CF38C818093650074
S11304501B8280916500803371F580916600803342
S113046051F580917B00873031F588E390E020914D
S11304706800FC01208310927B0080916800823325
S113048061F488E390E02FE0FC0120838091680010
S11304900E948D020E94680214C080916800833318
S11304A051F488E390E020EFFC0120830E94A50230
S11304B00E94680206C080917B00873010F00E9481
S11304C068020F900F900F900F90DF91CF910895D5
S11304D0CF93DF9300D0CDB7DEB71092790010929E
S11304E07A0010927B0010927C001A8219820BC051
S11304F089819A818B599F4FFC01108289819A814D
S113050001969A83898389819A818830910584F739
S11305100F900F90DF91CF910895CF93DF931F92A7
S1130520CDB7DEB7898380E490E020E430E0F901C0
S113053020812068FC01208381E0809362000E9476
S1130540B7020F90DF91CF910895CF93DF93CDB78A
S1130550DEB78AE290E02AE230E0F90120812F7DC3
S1130560FC01208310926200DF91CF910895CF9314
S1130570DF93CDB7DEB780917600813099F5809115
S11305806000909161008A309105FCF48AE290E069
S11305902AE230E0F90120812064FC0120838CE20E
S11305A090E0209160003091610024593F4FF9019F
S11305B02081FC012083809160009091610001966C
S11305C090936100809360000DC08AE290E02AE27B
S11305D030E0F90120812F7BFC012083109261001F
S11305E010926000DF91CF910895CF93DF93CDB740
S11305F0DEB780E490E020E430E0F9012081206857
S1130600FC0120838CE290E02FEFFC01208380E446
S113061090E020E430E0F90120812F77FC01208371
S1130620DF91CF910895CF93DF93CDB7DEB70E94CA
S1130630200378940E94F50285E00E948501FFCF93
S1130640CF93DF93CDB7DEB70E942F030E949403AC
S11306500E9476030E945403DF91CF910895CF93B3
S1130660DF93CDB7DEB78BE390E0FC0110828AE321
S113067090E02FEFFC01208382E390E02CE3FC0167
S1130680208381E390E02FEFFC01208388E390E056
S113069020917900FC01208387E390E02FEFFC0197
S11306A02083DF91CF910895CF93DF93CDB7DEB749
S11306B087E290E027E230E0F9012081206CFC0120
S11306C0208386E290E026E230E0F90120812E6D5D
S11306D0FC01208380E590E020E530E0F9012081F1
S11306E02066FC012083DF91CF910895CF93DF939F
S11306F0CDB7DEB783E590E023E530E0F901208152
S11307002360FC01208389E590E029E530E0F901CC
S113071020812160FC0120838CE590E02FEFFC0117
S11307202083DF91CF910895CF93DF9300D0CDB78D
S1130730DEB78CE090E09A83898380E490E029819D
S11307403A81232F330F330BFC01208389E290E09D
S11307502981FC0120838AE290E02AE230E0F90159
S113076020812B6DFC01208380E490E020E430E0C4
S1130770F90120812668FC0120830F900F90DF91FE
S10B0780CF910895F894FFCF16
S9030000FC
